{
  "_format": "hh-sol-artifact-1",
  "contractName": "EMC_Claim",
  "sourceName": "contracts/Claim.sol",
  "abi": [
    {
      "inputs": [],
      "stateMutability": "nonpayable",
      "type": "constructor"
    },
    {
      "anonymous": false,
      "inputs": [
        {
          "indexed": true,
          "internalType": "address",
          "name": "previousOwner",
          "type": "address"
        },
        {
          "indexed": true,
          "internalType": "address",
          "name": "newOwner",
          "type": "address"
        }
      ],
      "name": "OwnershipTransferred",
      "type": "event"
    },
    {
      "anonymous": false,
      "inputs": [
        {
          "indexed": true,
          "internalType": "address",
          "name": "claimant",
          "type": "address"
        },
        {
          "indexed": false,
          "internalType": "uint256",
          "name": "amount",
          "type": "uint256"
        }
      ],
      "name": "TokenClaimed",
      "type": "event"
    },
    {
      "anonymous": false,
      "inputs": [
        {
          "indexed": true,
          "internalType": "bytes32",
          "name": "currentChallenge",
          "type": "bytes32"
        }
      ],
      "name": "UpdateCurrentChallenge",
      "type": "event"
    },
    {
      "anonymous": false,
      "inputs": [
        {
          "indexed": true,
          "internalType": "bytes32",
          "name": "newDifficulty",
          "type": "bytes32"
        },
        {
          "indexed": true,
          "internalType": "uint256",
          "name": "newLength",
          "type": "uint256"
        }
      ],
      "name": "UpdateDifficulty",
      "type": "event"
    },
    {
      "inputs": [
        {
          "internalType": "address payable",
          "name": "to",
          "type": "address"
        },
        {
          "internalType": "bytes32",
          "name": "_difficulty",
          "type": "bytes32"
        }
      ],
      "name": "claim",
      "outputs": [],
      "stateMutability": "payable",
      "type": "function"
    },
    {
      "inputs": [],
      "name": "currentChallenge",
      "outputs": [
        {
          "internalType": "bytes32",
          "name": "",
          "type": "bytes32"
        }
      ],
      "stateMutability": "view",
      "type": "function"
    },
    {
      "inputs": [],
      "name": "dailyLimit",
      "outputs": [
        {
          "internalType": "uint256",
          "name": "",
          "type": "uint256"
        }
      ],
      "stateMutability": "view",
      "type": "function"
    },
    {
      "inputs": [],
      "name": "difficulty",
      "outputs": [
        {
          "internalType": "bytes32",
          "name": "",
          "type": "bytes32"
        }
      ],
      "stateMutability": "view",
      "type": "function"
    },
    {
      "inputs": [],
      "name": "difficultyLength",
      "outputs": [
        {
          "internalType": "uint256",
          "name": "",
          "type": "uint256"
        }
      ],
      "stateMutability": "view",
      "type": "function"
    },
    {
      "inputs": [],
      "name": "lastClaimedDate",
      "outputs": [
        {
          "internalType": "uint256",
          "name": "",
          "type": "uint256"
        }
      ],
      "stateMutability": "view",
      "type": "function"
    },
    {
      "inputs": [
        {
          "internalType": "address",
          "name": "",
          "type": "address"
        }
      ],
      "name": "lastClaimedTime",
      "outputs": [
        {
          "internalType": "uint256",
          "name": "",
          "type": "uint256"
        }
      ],
      "stateMutability": "view",
      "type": "function"
    },
    {
      "inputs": [],
      "name": "mintFee",
      "outputs": [
        {
          "internalType": "uint256",
          "name": "",
          "type": "uint256"
        }
      ],
      "stateMutability": "view",
      "type": "function"
    },
    {
      "inputs": [],
      "name": "owner",
      "outputs": [
        {
          "internalType": "address",
          "name": "",
          "type": "address"
        }
      ],
      "stateMutability": "view",
      "type": "function"
    },
    {
      "inputs": [],
      "name": "renounceOwnership",
      "outputs": [],
      "stateMutability": "nonpayable",
      "type": "function"
    },
    {
      "inputs": [
        {
          "internalType": "bytes32",
          "name": "newCurrentChallenge",
          "type": "bytes32"
        }
      ],
      "name": "setCurrentChallenge",
      "outputs": [],
      "stateMutability": "nonpayable",
      "type": "function"
    },
    {
      "inputs": [
        {
          "internalType": "uint256",
          "name": "_fee",
          "type": "uint256"
        }
      ],
      "name": "setMintFee",
      "outputs": [],
      "stateMutability": "nonpayable",
      "type": "function"
    },
    {
      "inputs": [],
      "name": "todayClaimed",
      "outputs": [
        {
          "internalType": "uint256",
          "name": "",
          "type": "uint256"
        }
      ],
      "stateMutability": "view",
      "type": "function"
    },
    {
      "inputs": [],
      "name": "tokenAmount",
      "outputs": [
        {
          "internalType": "uint256",
          "name": "",
          "type": "uint256"
        }
      ],
      "stateMutability": "view",
      "type": "function"
    },
    {
      "inputs": [
        {
          "internalType": "address",
          "name": "newOwner",
          "type": "address"
        }
      ],
      "name": "transferOwnership",
      "outputs": [],
      "stateMutability": "nonpayable",
      "type": "function"
    },
    {
      "inputs": [
        {
          "internalType": "bytes32",
          "name": "newDifficulty",
          "type": "bytes32"
        },
        {
          "internalType": "uint256",
          "name": "newLength",
          "type": "uint256"
        }
      ],
      "name": "updateDifficulty",
      "outputs": [],
      "stateMutability": "nonpayable",
      "type": "function"
    },
    {
      "inputs": [
        {
          "internalType": "address",
          "name": "",
          "type": "address"
        }
      ],
      "name": "userClaimedAmount",
      "outputs": [
        {
          "internalType": "uint256",
          "name": "",
          "type": "uint256"
        }
      ],
      "stateMutability": "view",
      "type": "function"
    },
    {
      "inputs": [
        {
          "internalType": "address",
          "name": "from",
          "type": "address"
        },
        {
          "internalType": "bytes32",
          "name": "_difficulty",
          "type": "bytes32"
        }
      ],
      "name": "verifySolution",
      "outputs": [
        {
          "internalType": "bool",
          "name": "",
          "type": "bool"
        }
      ],
      "stateMutability": "view",
      "type": "function"
    },
    {
      "inputs": [
        {
          "internalType": "uint256",
          "name": "amount",
          "type": "uint256"
        },
        {
          "internalType": "address payable",
          "name": "to",
          "type": "address"
        }
      ],
      "name": "withdraw",
      "outputs": [],
      "stateMutability": "nonpayable",
      "type": "function"
    },
    {
      "inputs": [
        {
          "internalType": "address",
          "name": "tokenAddress",
          "type": "address"
        },
        {
          "internalType": "uint256",
          "name": "amount",
          "type": "uint256"
        }
      ],
      "name": "withdrawERC20",
      "outputs": [],
      "stateMutability": "nonpayable",
      "type": "function"
    },
    {
      "stateMutability": "payable",
      "type": "receive"
    }
  ],
  "bytecode": "0x60806040527f990000000000000000000000000000000000000000000000000000000000000060001b600155600280557f789054480000000000000000000000000000000000000000000000000000000060001b60035566b1a2bc2ec500006004556002600555690a968163f0a57b40000060065534801561008057600080fd5b5061009d6100926100a260201b60201c565b6100aa60201b60201c565b61016e565b600033905090565b60008060009054906101000a900473ffffffffffffffffffffffffffffffffffffffff169050816000806101000a81548173ffffffffffffffffffffffffffffffffffffffff021916908373ffffffffffffffffffffffffffffffffffffffff1602179055508173ffffffffffffffffffffffffffffffffffffffff168173ffffffffffffffffffffffffffffffffffffffff167f8be0079c531659141344cd1fd0a4f28419497f9722a3daafe3b4186f6b6457e060405160405180910390a35050565b6117c98061017d6000396000f3fe6080604052600436106101225760003560e01c8063a1db9782116100a0578063e57785d911610064578063e57785d91461039a578063eddd0d9c146103d7578063eec7faa114610400578063f2fde38b1461042b578063f3f91fa01461045457610129565b8063a1db9782146102d8578063aa19717014610301578063c808807c1461032c578063c8622c2414610355578063d7343e301461037157610129565b80632f926723116100e75780632f9267231461020357806351bdd5851461024057806367eeba0c1461026b578063715018a6146102965780638da5cb5b146102ad57610129565b8062f714ce1461012e57806313966db51461015757806319cae462146101825780631efa68ae146101ad5780632cf16fa5146101d857610129565b3661012957005b600080fd5b34801561013a57600080fd5b5061015560048036038101906101509190610e02565b610491565b005b34801561016357600080fd5b5061016c610527565b6040516101799190610e51565b60405180910390f35b34801561018e57600080fd5b5061019761052d565b6040516101a49190610e85565b60405180910390f35b3480156101b957600080fd5b506101c2610533565b6040516101cf9190610e51565b60405180910390f35b3480156101e457600080fd5b506101ed610539565b6040516101fa9190610e51565b60405180910390f35b34801561020f57600080fd5b5061022a60048036038101906102259190610ede565b61053f565b6040516102379190610e51565b60405180910390f35b34801561024c57600080fd5b50610255610557565b6040516102629190610e85565b60405180910390f35b34801561027757600080fd5b5061028061055d565b60405161028d9190610e51565b60405180910390f35b3480156102a257600080fd5b506102ab610563565b005b3480156102b957600080fd5b506102c2610577565b6040516102cf9190610f1a565b60405180910390f35b3480156102e457600080fd5b506102ff60048036038101906102fa9190610f35565b6105a0565b005b34801561030d57600080fd5b5061031661062b565b6040516103239190610e51565b60405180910390f35b34801561033857600080fd5b50610353600480360381019061034e9190610fa1565b610631565b005b61036f600480360381019061036a9190610fe1565b610679565b005b34801561037d57600080fd5b5061039860048036038101906103939190611021565b610a36565b005b3480156103a657600080fd5b506103c160048036038101906103bc919061104e565b610a77565b6040516103ce91906110a9565b60405180910390f35b3480156103e357600080fd5b506103fe60048036038101906103f991906110c4565b610ac1565b005b34801561040c57600080fd5b50610415610ad3565b6040516104229190610e51565b60405180910390f35b34801561043757600080fd5b50610452600480360381019061044d9190610ede565b610ad9565b005b34801561046057600080fd5b5061047b60048036038101906104769190610ede565b610b5c565b6040516104889190610e51565b60405180910390f35b610499610b74565b814710156104dc576040517f08c379a00000000000000000000000000000000000000000000000000000000081526004016104d39061114e565b60405180910390fd5b8073ffffffffffffffffffffffffffffffffffffffff166108fc839081150290604051600060405180830381858888f19350505050158015610522573d6000803e3d6000fd5b505050565b60045481565b60015481565b60075481565b60085481565b600a6020528060005260406000206000915090505481565b60035481565b60065481565b61056b610b74565b6105756000610bf2565b565b60008060009054906101000a900473ffffffffffffffffffffffffffffffffffffffff16905090565b6105a8610b74565b8173ffffffffffffffffffffffffffffffffffffffff1663a9059cbb33836040518363ffffffff1660e01b81526004016105e392919061116e565b6020604051808303816000875af1158015610602573d6000803e3d6000fd5b505050506040513d601f19601f8201168201806040525081019061062691906111c3565b505050565b60025481565b610639610b74565b816001819055508060028190555080827fbea67ba171b0d8aad845de34bac346a88e9da4417157bdf25b85da48b936313260405160405180910390a35050565b6004543410156106be576040517f08c379a00000000000000000000000000000000000000000000000000000000081526004016106b59061123c565b60405180910390fd5b620151806008546106cf91906112ba565b62015180426106de91906112ba565b11156106f4576000600781905550426008819055505b600654670de0b6b3a764000060055461070d91906112eb565b60075461071a919061132d565b111561075b576040517f08c379a0000000000000000000000000000000000000000000000000000000008152600401610752906113ad565b60405180910390fd5b62015180600b60003373ffffffffffffffffffffffffffffffffffffffff1673ffffffffffffffffffffffffffffffffffffffff168152602001908152602001600020546107a991906112ba565b62015180426107b891906112ba565b116107f8576040517f08c379a00000000000000000000000000000000000000000000000000000000081526004016107ef90611419565b60405180910390fd5b600060025414610864576009600082815260200190815260200160002060009054906101000a900460ff1615610863576040517f08c379a000000000000000000000000000000000000000000000000000000000815260040161085a90611485565b60405180910390fd5b5b6000670de0b6b3a764000060055461087c91906112eb565b90506108883383610a77565b6108c7576040517f08c379a00000000000000000000000000000000000000000000000000000000081526004016108be906114f1565b60405180910390fd5b60016009600084815260200190815260200160002060006101000a81548160ff02191690831515021790555080471015610936576040517f08c379a000000000000000000000000000000000000000000000000000000000815260040161092d9061155d565b60405180910390fd5b60008373ffffffffffffffffffffffffffffffffffffffff168260405161095c906115ae565b60006040518083038185875af1925050503d8060008114610999576040519150601f19603f3d011682016040523d82523d6000602084013e61099e565b606091505b50509050806109e2576040517f08c379a00000000000000000000000000000000000000000000000000000000081526004016109d99061160f565b60405180910390fd5b8373ffffffffffffffffffffffffffffffffffffffff167fe42df0d9493dfd0d7f69902c895b94c190a53e8c27876a86f45e7c997d9d8f7c83604051610a289190610e51565b60405180910390a250505050565b610a3e610b74565b806003819055506003547fa4aa6cc25372fbdd9559e43995ddb9be726dab2f4462dea51a3cbb391d8b241c60405160405180910390a250565b6000808260035485604051602001610a919392919061162f565b604051602081830303815290604052805190602001209050610ab881600154600254610cb6565b91505092915050565b610ac9610b74565b8060048190555050565b60055481565b610ae1610b74565b600073ffffffffffffffffffffffffffffffffffffffff168173ffffffffffffffffffffffffffffffffffffffff1603610b50576040517f08c379a0000000000000000000000000000000000000000000000000000000008152600401610b47906116d8565b60405180910390fd5b610b5981610bf2565b50565b600b6020528060005260406000206000915090505481565b610b7c610d61565b73ffffffffffffffffffffffffffffffffffffffff16610b9a610577565b73ffffffffffffffffffffffffffffffffffffffff1614610bf0576040517f08c379a0000000000000000000000000000000000000000000000000000000008152600401610be790611744565b60405180910390fd5b565b60008060009054906101000a900473ffffffffffffffffffffffffffffffffffffffff169050816000806101000a81548173ffffffffffffffffffffffffffffffffffffffff021916908373ffffffffffffffffffffffffffffffffffffffff1602179055508173ffffffffffffffffffffffffffffffffffffffff168173ffffffffffffffffffffffffffffffffffffffff167f8be0079c531659141344cd1fd0a4f28419497f9722a3daafe3b4186f6b6457e060405160405180910390a35050565b600080600090505b82811015610d5457838160208110610cd957610cd8611764565b5b1a60f81b7effffffffffffffffffffffffffffffffffffffffffffffffffffffffffffff1916858260208110610d1257610d11611764565b5b1a60f81b7effffffffffffffffffffffffffffffffffffffffffffffffffffffffffffff191614610d47576000915050610d5a565b8080600101915050610cbe565b50600190505b9392505050565b600033905090565b600080fd5b6000819050919050565b610d8181610d6e565b8114610d8c57600080fd5b50565b600081359050610d9e81610d78565b92915050565b600073ffffffffffffffffffffffffffffffffffffffff82169050919050565b6000610dcf82610da4565b9050919050565b610ddf81610dc4565b8114610dea57600080fd5b50565b600081359050610dfc81610dd6565b92915050565b60008060408385031215610e1957610e18610d69565b5b6000610e2785828601610d8f565b9250506020610e3885828601610ded565b9150509250929050565b610e4b81610d6e565b82525050565b6000602082019050610e666000830184610e42565b92915050565b6000819050919050565b610e7f81610e6c565b82525050565b6000602082019050610e9a6000830184610e76565b92915050565b6000610eab82610da4565b9050919050565b610ebb81610ea0565b8114610ec657600080fd5b50565b600081359050610ed881610eb2565b92915050565b600060208284031215610ef457610ef3610d69565b5b6000610f0284828501610ec9565b91505092915050565b610f1481610ea0565b82525050565b6000602082019050610f2f6000830184610f0b565b92915050565b60008060408385031215610f4c57610f4b610d69565b5b6000610f5a85828601610ec9565b9250506020610f6b85828601610d8f565b9150509250929050565b610f7e81610e6c565b8114610f8957600080fd5b50565b600081359050610f9b81610f75565b92915050565b60008060408385031215610fb857610fb7610d69565b5b6000610fc685828601610f8c565b9250506020610fd785828601610d8f565b9150509250929050565b60008060408385031215610ff857610ff7610d69565b5b600061100685828601610ded565b925050602061101785828601610f8c565b9150509250929050565b60006020828403121561103757611036610d69565b5b600061104584828501610f8c565b91505092915050565b6000806040838503121561106557611064610d69565b5b600061107385828601610ec9565b925050602061108485828601610f8c565b9150509250929050565b60008115159050919050565b6110a38161108e565b82525050565b60006020820190506110be600083018461109a565b92915050565b6000602082840312156110da576110d9610d69565b5b60006110e884828501610d8f565b91505092915050565b600082825260208201905092915050565b7f496e73756666696369656e742062616c616e636520696e20636f6e7472616374600082015250565b60006111386020836110f1565b915061114382611102565b602082019050919050565b600060208201905081810360008301526111678161112b565b9050919050565b60006040820190506111836000830185610f0b565b6111906020830184610e42565b9392505050565b6111a08161108e565b81146111ab57600080fd5b50565b6000815190506111bd81611197565b92915050565b6000602082840312156111d9576111d8610d69565b5b60006111e7848285016111ae565b91505092915050565b7f496e73756666696369656e7420454d432073656e740000000000000000000000600082015250565b60006112266015836110f1565b9150611231826111f0565b602082019050919050565b6000602082019050818103600083015261125581611219565b9050919050565b7f4e487b7100000000000000000000000000000000000000000000000000000000600052601260045260246000fd5b7f4e487b7100000000000000000000000000000000000000000000000000000000600052601160045260246000fd5b60006112c582610d6e565b91506112d083610d6e565b9250826112e0576112df61125c565b5b828204905092915050565b60006112f682610d6e565b915061130183610d6e565b925082820261130f81610d6e565b915082820484148315176113265761132561128b565b5b5092915050565b600061133882610d6e565b915061134383610d6e565b925082820190508082111561135b5761135a61128b565b5b92915050565b7f4461696c79206c696d6974207265616368656400000000000000000000000000600082015250565b60006113976013836110f1565b91506113a282611361565b602082019050919050565b600060208201905081810360008301526113c68161138a565b9050919050565b7f557365722063616e206f6e6c7920636c61696d206f6e63652070657220646179600082015250565b60006114036020836110f1565b915061140e826113cd565b602082019050919050565b60006020820190508181036000830152611432816113f6565b9050919050565b7f446966666963756c747920616c72656164792075736564000000000000000000600082015250565b600061146f6017836110f1565b915061147a82611439565b602082019050919050565b6000602082019050818103600083015261149e81611462565b9050919050565b7f766572696679536f6c7574696f6e206661696c00000000000000000000000000600082015250565b60006114db6013836110f1565b91506114e6826114a5565b602082019050919050565b6000602082019050818103600083015261150a816114ce565b9050919050565b7f496e73756666696369656e7420636f6e74726163742062616c616e6365000000600082015250565b6000611547601d836110f1565b915061155282611511565b602082019050919050565b600060208201905081810360008301526115768161153a565b9050919050565b600081905092915050565b50565b600061159860008361157d565b91506115a382611588565b600082019050919050565b60006115b98261158b565b9150819050919050565b7f455448207472616e73666572206661696c656400000000000000000000000000600082015250565b60006115f96013836110f1565b9150611604826115c3565b602082019050919050565b60006020820190508181036000830152611628816115ec565b9050919050565b60006060820190506116446000830186610e76565b6116516020830185610e76565b61165e6040830184610f0b565b949350505050565b7f4f776e61626c653a206e6577206f776e657220697320746865207a65726f206160008201527f6464726573730000000000000000000000000000000000000000000000000000602082015250565b60006116c26026836110f1565b91506116cd82611666565b604082019050919050565b600060208201905081810360008301526116f1816116b5565b9050919050565b7f4f776e61626c653a2063616c6c6572206973206e6f7420746865206f776e6572600082015250565b600061172e6020836110f1565b9150611739826116f8565b602082019050919050565b6000602082019050818103600083015261175d81611721565b9050919050565b7f4e487b7100000000000000000000000000000000000000000000000000000000600052603260045260246000fdfea26469706673582212209ad6d52c8d2f375d35269f353e3159d6592c931eea033f9e2caf43a1cfcbfb9a64736f6c63430008180033",
  "linkReferences": {},
  "deployedLinkReferences": {}
}